:10000000EEC000000CC100000AC1000008C10000E1
:1000100006C1000004C1000002C1000000C10000D0
:10002000FEC00000FCC00000FAC00000F8C00000E4
:10003000F6C00000F4C00000F2C00000F0C00000F4
:10004000EEC00000ECC00000EAC00000E8C0000004
:10005000E6C00000F6C10000E2C00000E0C0000001
:10006000DEC00000DCC00000DAC00000D8C0000024
:10007000D6C00000D4C00000D2C00000D0C0000034
:10008000CEC00000CCC00000CAC00000C8C0000044
:10009000C6C00000C4C00000C2C00000C0C0000054
:1000A000BEC00000BCC00000BAC00000B8C0000064
:1000B000B6C00000B4C00000B2C00000B0C0000074
:1000C000AEC00000ACC00000AAC00000A8C0000084
:1000D000A6C00000A4C00000A2C00000A0C0000094
:1000E0009EC0000000407A10F35A00A0724E18091A
:1000F0000010A5D4E80000E87648170000E40B548F
:10010000020000CA9A3B000000E1F505000080965D
:100110009800000040420F000000A086010000008F
:10012000102700000000E803000000006400000049
:1001300000000A00000000000100000000002C7612
:10014000D888DC674F0823DFC1DFAE59E1B1B7962D
:10015000E5E3E453C63AE651997696E8E6C284268A
:10016000EB898C9B62ED407C6FFCEFBC9C9F40F266
:10017000BAA56FA5F490055A2AF75C936B6CF967E2
:100180006DC11BFCE0E40D47FEF520E6B500D0EDA7
:10019000902E0300943577050080841E080000200F
:1001A0004E0A000000C80C333333330F986E1283AD
:1001B0001141EF8D2114893BE65516CFFEE6DB1881
:1001C000D1844B381BF77C1D901DA4BBE424203246
:1001D00084725E228100C9F124ECA1E53D2711243F
:1001E0001FBECFEFD1E2DEBFCDBF00E00CBF12E0FB
:1001F000A0E0B2E0E4E0F8E100E00BBF02C007904D
:100200000D92AA33B107D9F722E0AAE3B2E001C008
:100210001D92A737B207E1F7CFD10C94000CF0CEB6
:10022000CF93DF932F923F924F925F926F927F9284
:100230008F929F92AF92BF92CF92DF92EF92FF92F6
:100240000F931F9340913A0250917202642F660FF0
:10025000660FE2E5F2E0E60F00915D000083009199
:100260005E00018320913B0230913D02232B3091AF
:100270003C02232B40913A025091720270E0783098
:1002800089F34395550F503011F4539540E0652F95
:1002900062237395603099F701C0E4CF40933A022E
:1002A00050937202642F660F660FE2E5F2E0E60FEC
:1002B0007191808170935D0080935E001F910F911A
:1002C000FF90EF90DF90CF90BF90AF909F908F9076
:1002D0007F906F905F904F903F902F90DF91CF91E4
:1002E0000895CF93DF93E2E5F2E08FE791E2918307
:1002F0008083938382838FEF90E2958384839783B7
:1003000086838FE790E291878087938782878FEF3C
:100310009FE195878487978786878FE79FE1918BF9
:10032000808B938B828B8FEF9EE1958B848B978B49
:10033000868B8FE79EE1918F808F938F828F8FEFD7
:100340009DE1958F848F978F868F8AEA8093002115
:1003500080938020809300208093801F8093001FD3
:100360008093801E8093001E8093801D10924E0209
:1003700010924F021092500210925102EEE3F2E0FE
:1003800011821082138212821582148217821682C1
:100390001186108613861286158614861786168691
:1003A0008EEF80933B0210923C0210923D0210921D
:1003B0003A0281E08093720282E084BD9AEF97BD99
:1003C00080936E0083E085BD8DB79EB78115924204
:1003D000B0F4A0E8B1E280E092E2C1E0D2E2FC0138
:1003E00022912E93BE01681B790B9C01225031098A
:1003F0004DB75EB7CF012417350788F702C060E01C
:1004000070E0F89480E891E2861B970B9EBF8DBF49
:100410007894DF91CF9108959C0180913C02909156
:100420007202982B90933C02F894E0913A02F0E02B
:10043000EE0FFF1FE25CFD4F318320837894F0CEF6
:1004400008951F920F920FB60F9211240BB60F92C0
:100450002F933F934F935F936F938F939F93AF939C
:10046000BF93EF93FF9360913C0280E090E041E006
:1004700050E0FC01EE0FFF1FE25CFD4F2081318157
:10048000232B59F0FC01EE0FFF1FE25CFD4F208192
:1004900031812150310931832083FC01EE0FFF1F90
:1004A000E25CFD4F20813181232B49F49A01082E13
:1004B00002C0220F331F0A94E2F7209562230196AF
:1004C00088309105B1F660933C0280914E02909184
:1004D0004F02A0915002B09151020196A11DB11D91
:1004E00080934E0290934F02A0935002B09351021A
:1004F000FF91EF91BF91AF919F918F916F915F911C
:100500004F913F912F910F900BBE0F900FBE0F9008
:100510001F901895ECE7F0E0808180648083EAE723
:10052000F0E0808187608083808180688083089587
:10053000CF93DF936A30C1F54423C9F1ECE7F0E0D3
:100540009081282F2F71922B9083EBE7F0E0208190
:10055000982F9072892F90E095958795959587951E
:10056000822B808345E050E060E070E0EAE7F0E055
:10057000C8E7D0E0A9E7B0E09081906490839081D3
:1005800096FDFDCF88812C9130E0322F2227280F55
:10059000311D620F731F4150510971F7CB0165E0A6
:1005A00070E08DD2CB0105C080E090E002C080E019
:1005B00090E0DF91CF91089594DE46E050E060E056
:1005C0007BE480E090E050D0A5DF80E490E0BDD2F5
:1005D000EC0180E490E0B9D2A82EB92E0F2EFAE2F9
:1005E000EF2EF2E0FF2EF02D41E06AE080E0A0DF88
:1005F0006C01BC01990F880B990B72D120E030EC93
:100600004FE754E403D120E030E040EA50E4F4D175
:100610008E0122E043E07AD2FE0101900020E9F74A
:100620003197BF016C1B7D0BCE01DBD0DF92CF92E7
:10063000FF92EF92BF92AF92B5D3AA2DBB2DFD01D1
:1006400001900020E9F73197BF016A1B7B0B8A2DCF
:100650009B2DC7D088EC90E0DFDE0F900F900F90BD
:100660000F900F900F90C0CFF8944093C20028E1F4
:100670002093C100E0ECF0E020812260208360380C
:1006800020E772078105910509F45FC00CF5603819
:1006900025E272078105910509F448C06CF46036C3
:1006A00029E072078105910509F477C0603C724129
:1006B00081059105B1F16CC0603428E372078105B2
:1006C0009105C9F161157B4481059105C9F160C0AF
:1006D00061152CE2720721E08207910509F444C0FC
:1006E00064F4611526E972078105910599F1611598
:1006F000714E8105910599F14BC0611524E872078F
:1007000023E082079105D1F1603920ED720723E0E3
:1007100082079105C1F16115724C81409105C1F5C7
:1007200028C080EA91E0A0E0B0E03BC08FEC90E010
:10073000A0E0B0E036C08AE890E0A0E0B0E031C0D0
:1007400087E690E0A0E0B0E02CC084E490E0A0E078
:10075000B0E027C083E390E0A0E0B0E022C082E2F6
:1007600090E0A0E0B0E01DC089E190E0A0E0B0E042
:1007700018C080E190E0A0E0B0E013C088E090E015
:10078000A0E0B0E00EC087E090E0A0E0B0E009C0DB
:1007900087E690E0A0E0B0E004C080E493E0A0E051
:1007A000B0E0492F5A2F6B2F772767FD7A9540933A
:1007B000C5008093C400789408951F93CF93DF936E
:1007C000182F8091C00085FD06C0C0ECD0E028DD68
:1007D000988195FFFCCF1093C600DF91CF911F91B8
:1007E00008950F931F93CF93DF93161617064CF4BB
:1007F0008C01EC01060F171F8991DFDFC017D107AD
:10080000D9F7DF91CF911F910F9108950CD0BAC005
:10081000B2D040F0A9D030F021F45F3F19F09BC076
:100820005111E4C09EC0BFD098F39923C9F355235A
:10083000B1F3951B550BBB27AA27621773078407D3
:1008400038F09F5F5F4F220F331F441FAA1FA9F389
:1008500033D00E2E3AF0E0E830D091505040E6957B
:10086000001CCAF729D0FE2F27D0660F771F881FDC
:10087000BB1F261737074807AB07B0E809F0BB0BCB
:10088000802DBF01FF2793585F4F2AF09E3F5105EF
:1008900068F061C0ABC05F3FECF3983EDCF3869537
:1008A00077956795B795F7959F5FC9F7880F911D65
:1008B0009695879597F90895E1E0660F771F881F51
:1008C000BB1F621773078407BA0720F0621B730B04
:1008D000840BBA0BEE1F88F7E0950895E89409C0E1
:1008E00097FB3EF490958095709561957F4F8F4F63
:1008F0009F4F9923A9F0F92F96E9BB279395F69579
:10090000879577956795B795F111F8CFFAF4BB0FF6
:1009100011F460FF1BC06F5F7F4F8F4F9F4F16C05A
:10092000882311F096E911C0772321F09EE8872FE4
:10093000762F05C0662371F096E8862F70E060E0A0
:100940002AF09A95660F771F881FDAF7880F969519
:10095000879597F9089597F99F6780E870E060E0C0
:1009600008959FEF80EC089500240A941616170648
:1009700018060906089500240A9412161306140690
:1009800005060895092E0394000C11F4882352F0F3
:10099000BB0F40F4BF2B11F460FF04C06F5F7F4FAB
:1009A0008F4F9F4F089557FD9058440F551F59F092
:1009B0005F3F71F04795880F97FB991F61F09F3F4C
:1009C00079F087950895121613061406551FF2CF75
:1009D0004695F1DF08C0161617061806991FF1CFC5
:1009E00086957105610508940895E894BB276627EC
:1009F0007727CB0197F908950BD0C4CFB5DF28F046
:100A0000BADF18F0952309F0A6CFABCF1124EECFB3
:100A1000CADFA0F3959FD1F3950F50E0551F629F59
:100A2000F001729FBB27F00DB11D639FAA27F00D47
:100A3000B11DAA1F649F6627B00DA11D661F829F6E
:100A40002227B00DA11D621F739FB00DA11D621F53
:100A5000839FA00D611D221F749F3327A00D611D70
:100A6000231F849F600D211D822F762F6A2F112452
:100A70009F5750408AF0E1F088234AF0EE0FFF1FA5
:100A8000BB1F661F771F881F91505040A9F79E3FDC
:100A9000510570F060CFAACF5F3FECF3983EDCF3D6
:100AA000869577956795B795F795E7959F5FC1F719
:100AB000FE2B880F911D9695879597F9089597FBC2
:100AC000072E16F4009406D077FD08D00BD007FC53
:100AD00005D03EF4909581959F4F0895709561954E
:100AE0007F4F0895AA1BBB1B51E107C0AA1FBB1F64
:100AF000A617B70710F0A61BB70B881F991F5A95AA
:100B0000A9F780959095BC01CD010895EF920F93C0
:100B10001F93CF93DF93E80147FD02C034E001C08B
:100B200034E1E42F440FFF0BF7FF03C0F195E1958B
:100B3000F109E32E022F2E2FAE0151D3CE01DF910A
:100B4000CF911F910F91EF900895CF93DF93823053
:100B5000910510F482E090E0E0917502F091760248
:100B600020E030E0C0E0D0E0309711F140815181C9
:100B700048175907C0F04817590761F482819381DB
:100B8000209719F09B838A832BC0909376028093E1
:100B9000750226C02115310519F04217530718F4C4
:100BA0009A01BE01DF01EF010280F381E02DDCCF6D
:100BB0002115310509F1281B390B2430310590F43A
:100BC00012968D919C9113976115710521F0FB018F
:100BD0009383828304C09093760280937502FD0113
:100BE000329644C0FD01E20FF31F8193919322508E
:100BF00031092D933C933AC02091730230917402D5
:100C0000232B41F4209102023091030230937402AD
:100C100020937302209100023091010221153105C9
:100C200041F42DB73EB74091040250910502241BB8
:100C3000350BE0917302F0917402E217F307A0F410
:100C40002E1B3F0B2817390778F0AC014E5F5F4F22
:100C50002417350748F04E0F5F1F509374024093DE
:100C600073028193919302C0E0E0F0E0CF01DF9145
:100C7000CF9108950F931F93CF93DF93009709F4BB
:100C80008CC0FC0132971382128200917502109180
:100C900076020115110581F420813181820F931FA5
:100CA00020917302309174022817390779F5F09377
:100CB0007402E093730271C0D80140E050E0AE17B7
:100CC000BF0750F412962D913C911397AD01211559
:100CD000310509F1D901F3CF9D01DA013383228374
:100CE00060817181860F971F8217930769F4EC0169
:100CF00028813981260F371F2E5F3F4F3183208394
:100D00008A819B8193838283452B29F4F093760219
:100D1000E093750242C01396FC93EE931297ED0197
:100D2000499159919E01240F351FE217F30771F481
:100D300080819181840F951F029611969C938E93CA
:100D40008281938113969C938E931297E0E0F0E05A
:100D5000D80112968D919C911397009719F0F80184
:100D60008C01F6CF8D919C9198012E5F3F4F820FA1
:100D7000931F20917302309174022817390769F488
:100D8000309729F4109276021092750202C01382F5
:100D900012821093740200937302DF91CF911F911E
:100DA0000F9108950F931F93CF93DF93CDB7DEB7C5
:100DB0002E970FB6F894DEBF0FBECDBF0E891F89E8
:100DC00086E08C831A8309838FEF9FE79E838D8350
:100DD000AE01465E5F4F688D798DCE01019611D0D0
:100DE0002F813885F801E20FF31F10822E960FB67F
:100DF000F894DEBF0FBECDBFDF91CF911F910F9151
:100E000008952F923F924F925F926F927F928F92AE
:100E10009F92AF92BF92CF92DF92EF92FF920F9389
:100E20001F93CF93DF93CDB7DEB72C970FB6F8940F
:100E3000DEBF0FBECDBF7C016B018A01FC011782B2
:100E40001682838181FFB0C1CE0101964C01F7016A
:100E50009381F60193FD859193FF81916F01882322
:100E600009F49EC1853239F493FD859193FF8191F8
:100E70006F01853221F4B70190E02CD4E8CF512CDA
:100E8000312C20E02032A0F48B3269F030F4803233
:100E900059F0833269F420612CC08D3239F08033EF
:100EA00039F4216026C02260246023C0286021C05C
:100EB00027FD27C030ED380F3A3078F426FF06C002
:100EC000FAE05F9E300D1124532E13C08AE0389E45
:100ED000300D1124332E20620CC08E3221F426FDF9
:100EE0005FC1206406C08C3611F4206802C08836C9
:100EF00041F4F60193FD859193FF81916F0181117A
:100F0000C1CF982F9F7D9554933028F40C5F1F4FCD
:100F1000FFE3F9830DC0833631F0833771F08335F9
:100F200009F057C021C0F801808189830E5F1F4FEF
:100F300044244394512C540114C03801F2E06F0E44
:100F4000711CF801A080B18026FF03C0652D70E000
:100F500002C06FEF7FEFC5012C87B1D32C01830155
:100F60002C852F77222E16C03801F2E06F0E711CEF
:100F7000F801A080B18026FF03C0652D70E002C09B
:100F80006FEF7FEFC5012C878FD32C012C85206854
:100F9000222E830123FC19C0832D90E048165906A8
:100FA000A0F4B70180E290E095D33A94F5CFF50133
:100FB00027FC859127FE81915F01B70190E08AD3DC
:100FC00031103A94F1E04F1A51084114510479F765
:100FD000DEC0843611F0893631F5F80127FF07C0ED
:100FE00060817181828193810C5F1F4F08C0608195
:100FF0007181072E000C880B990B0E5F1F4F2F7607
:10100000722E97FF09C090958095709561957F4FDE
:101010008F4F9F4F2068722E2AE030E0A40192D3B8
:10102000A82EA81843C0853729F42F7EB22E2AE0B7
:1010300030E025C0F22FF97FBF2E8F36C1F018F4B3
:10104000883579F0ADC0803719F0883721F0A8C015
:101050002F2F2061B22EB4FE0DC08B2D8460B82ED0
:1010600009C024FF0AC09F2F9660B92E06C028E051
:1010700030E005C020E130E002C020E132E0F801BC
:10108000B7FE07C060817181828193810C5F1F4F21
:1010900006C06081718180E090E00E5F1F4FA40167
:1010A00051D3A82EA818FB2DFF777F2E76FE0BC0FC
:1010B000372D3E7FA51450F474FE0AC072FC08C0A0
:1010C000372D3E7E05C0BA2C372D03C0BA2C01C087
:1010D000B52C34FF0DC0FE01EA0DF11D8081803377
:1010E00011F4397E09C032FF06C0B394B39404C032
:1010F000832F867809F0B39433FD12C030FF06C009
:101100005A2CB31418F4530C5B18B32CB31460F4BA
:10111000B70180E290E03C87DDD2B3943C85F6CF06
:10112000B31410F43B1801C0312C34FF11C0B701C7
:1011300080E390E03C87CED23C8532FF16C031FD83
:1011400003C088E790E002C088E590E0B7010CC0DA
:10115000832F867851F031FF02C08BE201C080E21C
:1011600037FD8DE2B70190E0B5D2A51430F4B70198
:1011700080E390E0AFD25A94F8CFAA94F401EA0D3C
:10118000F11D8081B70190E0A5D2A110F6CF3320E8
:1011900009F45DCEB70180E290E09CD23A94F7CF9B
:1011A000F7018681978102C08FEF9FEF2C960FB6D3
:1011B000F894DEBF0FBECDBFDF91CF911F910F918D
:1011C000FF90EF90DF90CF90BF90AF909F908F9067
:1011D0007F906F905F904F903F902F9008954F9227
:1011E0005F926F927F929F92AF92BF92CF92DF9267
:1011F000EF92FF920F931F93CF93DF93CDB7DEB79C
:1012000029970FB6F894DEBF0FBECDBF6A01122F2B
:10121000B02E2BE3201720F0FF24F394F00E02C031
:10122000BCE3FB2E0F2D27E0AE014F5F5F4F64D173
:10123000AC018981982F9970913031F0E1FC06C0A2
:10124000E0FE06C090E205C09DE203C09BE201C043
:1012500090E0EE2DE07183FF3CC0911102C083E06D
:1012600001C084E0811718F4212F281B01C020E061
:10127000E1110BC0F601822F30E2882319F031937F
:101280008150FBCFC20ED11C20E0992329F0D6015A
:101290009C93F60131966F01C6010396E2FE0AC0E7
:1012A0003EE4D6013C9341E411964C93119712967B
:1012B0003C9306C03EE6F601308341E6418332832B
:1012C000FC01322F40E2332309F442C041933150F4
:1012D000FACF82FF44C0911102C083E001C084E0D4
:1012E000811718F4212F281B01C020E0E1110BC049
:1012F000F601822F30E2882319F031938150FBCF21
:10130000C20ED11C20E0992329F0D6019C93F6014E
:1013100031966F01C6010396E2FE0BC039E4D60197
:101320003C933EE411963C93119736E412963C931D
:1013300007C039E6F60130833EE6318336E6328374
:10134000FC01322F40E2332319F041933150FBCF9F
:10135000FC01E20FF11D10828EEF9FEFB7C0F1E0AC
:10136000911101C0F0E06F2F70E01416150624F4FF
:101370009A012F5F3F4F02C021E030E0260F371F58
:10138000BB2029F06B2D70E06F5F7F4F02C060E0E3
:1013900070E0260F371F612F70E0261737071CF407
:1013A000121B212F01C020E03E2D387159F4D601C7
:1013B000322F60E2332319F06D933150FBCFC20E10
:1013C000D11C20E0FF2331F0D6019C93B6016F5F62
:1013D0007F4F6B01E1110BC0F601922F30E399238F
:1013E00019F031939150FBCFC20ED11C20E09F2DFC
:1013F000940F3A81782F7071A72E84FF03C0313388
:1014000009F49150191624F4993018F098E001C0AD
:1014100091E0E42F852F57FF02C0E0E080E06E2FBF
:10142000782FE0E0F0E0AEE29A2E3A01691A7108F6
:101430002A01461A570A0B2D10E011950195110942
:101440006F3F8FEF780729F4D6019C92C601019671
:101450006C014617570784F0661677066CF47F0117
:10146000E40CF51CA1E0B0E0AC0FBD1FEA0EFB1EC2
:10147000D7011196BC9002C090E3B92E615071095A
:101480003196C60101967C016017710724F0D601E0
:10149000BC926C01D5CF6417750741F4363320F444
:1014A000353321F4A11002C081E3B82EF601B082D9
:1014B000F701822F90E2882319F091938150FBCF9E
:1014C000F701E20FF11D108280E090E029960FB63F
:1014D000F894DEBF0FBECDBFDF91CF911F910F916A
:1014E000FF90EF90DF90CF90BF90AF909F907F9054
:1014F0006F905F904F900895283008F027E03327D1
:10150000DA01990F311D87FD916000966105710523
:1015100039F432602E5F3D9330E32A95E1F7089568
:101520009F3F30F080387105610509F03C5F3C5FFA
:101530003D93913008F08068911DDF93CF931F9306
:101540000F93FF92EF92192F987F9695E92F96951A
:101550009695E90FFF27E25CFE4F99273327EE248B
:10156000FF24A701E70105900894079428F4360F9B
:10157000E71EF81E491F511D660F771F881F991F10
:101580000694A1F70590079428F4E70EF81E491F6A
:10159000561FC11D770F881F991F661F0694A1F75C
:1015A0000590079428F4F80E491F561FC71FD11D38
:1015B000880F991F661F771F0694A1F7059007945F
:1015C00020F4490F561FC71FD81F990F661F771F9A
:1015D000881F0694A9F784911095177041F0D6954D
:1015E000C79557954795F794E7941A95C1F7E4EE98
:1015F000F0E068941590159135916591959105905D
:101600007FE27395E118F10A430B560BC90BD00921
:10161000C0F7E10CF11E431F561FC91FD01D7EF4F9
:10162000703311F48A95E6CFE894015030F0080F3A
:101630000AF40027021708F4202F2395022F7A338B
:1016400028F079E37D932A95E9F710C07D932A95D8
:1016500089F6069497956795379517951794E1182D
:10166000F10A430B560BC90BD00998F023957E91D4
:1016700073957A3308F070E37C932013B8F77E916A
:1016800070617D9330F0839571E37D9370E32A95CB
:10169000E1F71124EF90FF900F911F91CF91DF910F
:1016A000992787FD90950895FC0105906150704041
:1016B0000110D8F7809590958E0F9F1F0895FC011B
:1016C0006150704001900110D8F7809590958E0F71
:1016D0009F1F08950F931F93CF93DF93FB012381E7
:1016E00021FD03C08FEF9FEF28C022FF16C0468167
:1016F0005781248135814217530744F4A081B18179
:101700009D012F5F3F4F318320838C93268137814A
:101710002F5F3F4F3783268310C0EB01092F182F0F
:101720000084F185E02D1995892BE1F68E819F814A
:1017300001969F838E83812F902FDF91CF911F91F0
:101740000F910895FA01AA27283051F1203181F133
:10175000E8946F936E7F6E5F7F4F8F4F9F4FAF4FB9
:10176000B1E03ED0B4E03CD0670F781F891F9A1FCC
:10177000A11D680F791F8A1F911DA11D6A0F711D80
:10178000811D911DA11D20D009F468943F912AE08C
:10179000269F11243019305D3193DEF6CF01089574
:1017A000462F4770405D4193B3E00FD0C9F7F6CFA5
:1017B000462F4F70405D4A3318F0495D31FD40526D
:1017C000419302D0A9F7EACFB4E0A6959795879503
:1017D00077956795BA95C9F70097610571050895E2
:1017E0009B01AC010A2E069457954795379527958E
:1017F000BA95C9F7620F731F841F951FA01D089526
:04180000F894FFCF8A
:10180400000077022000556E7265636F676E697A17
:10181400656420436F6D6D616E64002564206465AA
:10182400677265657320430A0D0020766F6C7473CC
:0A183400202830782578290A0D00DD
:00000001FF
