:1000000071C000008EC000008CC000008AC00000DB
:1000100088C0000086C0000084C0000082C00000CC
:1000200080C000007EC000007CC000007AC00000DC
:1000300078C0000076C0000074C0000072C00000EC
:1000400070C000006EC000006CC000006AC00000FC
:1000500068C0000083C1000064C0000062C00000EE
:1000600060C000005EC000005CC000005AC000001C
:1000700058C0000056C0000054C0000052C000002C
:1000800050C000004EC000004CC000004AC000003C
:1000900048C0000046C0000044C0000042C000004C
:1000A00040C000003EC000003CC000003AC000005C
:1000B00038C0000036C0000034C0000032C000006C
:1000C00030C000002EC000002CC000002AC000007C
:1000D00028C0000026C0000024C0000022C000008C
:1000E00020C0000011241FBECFEFD1E2DEBFCDBF84
:1000F00000E00CBF12E0A0E0B2E0E0E7F7E000E0D3
:100100000BBF02C007900D92A030B107D9F722E0D3
:10011000A0E0B2E001C01D92A933B207E1F747D2D7
:1001200025C36ECFCF93DF932F923F924F925F9272
:100130006F927F928F929F92AF92BF92CF92DF92F7
:10014000EF92FF920F931F9340910002509138025B
:10015000642F660F660FE8E1F2E0E60F00915D00A4
:10016000008300915E00018320910102309103021F
:10017000232B30910202232B409100025091380230
:1001800070E0783089F34395550F503011F4539552
:1001900040E0652F62237395603099F701C0E4CF8A
:1001A0004093000250933802642F660F660FE8E117
:1001B000F2E0E60F7191808170935D0080935E00A4
:1001C0001F910F91FF90EF90DF90CF90BF90AF9075
:1001D0009F908F907F906F905F904F903F902F9067
:1001E000DF91CF910895682F692B000031F005D081
:1001F00000C000000197D9F700000895CF93DF9366
:10020000E8E1F2E08FE791E2918380839383828338
:100210008FEF90E295838483978386838FE790E2C4
:1002200091878087938782878FEF9FE19587848767
:10023000978786878FE79FE1918B808B938B828B4B
:100240008FEF9EE1958B848B978B868B8FE79EE15A
:10025000918F808F938F828F8FEF9DE1958F848F09
:10026000978F868F8AEA80930021809380208093E5
:1002700000208093801F8093001F8093801E8093B6
:10028000001E8093801D109214021092150210928D
:10029000160210921702E4E0F2E01182108213823B
:1002A0001282158214821782168211861086138696
:1002B000128615861486178616868EEF80930102A5
:1002C00010920202109203021092000281E08093C9
:1002D000380282E084BD9AEF97BD80936E0083E080
:1002E00085BD8DB79EB781159242B0F4A0E8B1E20A
:1002F00080E092E2C1E0D2E2FC0122912E93BE01A5
:10030000681B790B9C01225031094DB75EB7CF01B4
:100310002417350788F702C060E070E0F89480E8A1
:1003200091E2861B970B9EBF8DBF7894DF91CF9192
:1003300008959C018091020290913802982B90932D
:100340000202F894E0910002F0E0EE0FFF1FEC5F74
:10035000FD4F318320837894E5CE08951F920F924C
:100360000FB60F9211240BB60F922F933F934F931A
:100370005F936F938F939F93AF93BF93EF93FF938D
:100380006091020280E090E041E050E0FC01EE0F5D
:10039000FF1FEC5FFD4F20813181232B59F0FC01C1
:1003A000EE0FFF1FEC5FFD4F20813181215031099D
:1003B00031832083FC01EE0FFF1FEC5FFD4F208196
:1003C0003181232B49F49A01082E02C0220F331FDA
:1003D0000A94E2F720956223019688309105B1F6E0
:1003E000609302028091140290911502A09116026E
:1003F000B09117020196A11DB11D80931402909334
:100400001502A0931602B0931702FF91EF91BF91CE
:10041000AF919F918F916F915F914F913F912F91EC
:100420000F900BBE0F900FBE0F901F901895CF939B
:100430006C9A74988FED91E0D6DE749A6C9885E48E
:1004400090E0D1DECCB185EE90E0CDDEC295C170FA
:1004500081E08C27CF9108956C9A7498749A6C9867
:100460008EE090E0C0DE8CB1807108956C9A749833
:10047000813009F4749A8BE390E0B5DE749A6C983D
:100480000895EF92FF921F93CF93DF93C0E0D0E0E7
:1004900010E0EE24E394F12CDFDF882341F0C70164
:1004A0000C2E02C0880F991F0A94E2F7182B83E1E3
:1004B00090E099DE2196C830D10571F7812FDF9148
:1004C000CF911F91FF90EF9008950F931F93CF93BB
:1004D000DF93C0E0D0E0082F10E0C8010C2E02C06E
:1004E000959587950A94E2F78170C0DF2196C83010
:1004F000D10599F787E790E076DEDF91CF911F91E4
:100500000F910895EF92FF920F931F93CF93DF9374
:10051000CDB7DEB72A970FB6F894DEBF0FBECDBFBA
:1005200086DF8CECD2DF84E4D0DF87E790E05BDE0F
:100530007EDF8CECCADF8EEBC8DF8E010F5F1F4FB2
:100540007E018AE0E80EF11C9CDFF80181938F01A7
:10055000EE15FF05C9F79A818981913840F4869597
:1005600099231CF481958695819590E003C0992389
:10057000E4F7F8CF2A960FB6F894DEBF0FBECDBFD2
:10058000DF91CF911F910F91FF90EF900895CF933E
:10059000DF931F92CDB7DEB7B5DF898361E070E0EE
:1005A000CE010196CED00F90DF91CF91089526DE37
:1005B00046E050E060E07BE480E090E005D0E7DFDB
:1005C00080ED97E0B6DEFBCFF8944093C20028E1BF
:1005D0002093C100E0ECF0E02081226020836038AD
:1005E00020E772078105910509F45FC00CF56038BA
:1005F00025E272078105910509F448C06CF4603664
:1006000029E072078105910509F477C0603C7241C9
:1006100081059105B1F16CC0603428E37207810552
:100620009105C9F161157B4481059105C9F160C04F
:1006300061152CE2720721E08207910509F444C09C
:1006400064F4611526E972078105910599F1611538
:10065000714E8105910599F14BC0611524E872072F
:1006600023E082079105D1F1603920ED720723E084
:1006700082079105C1F16115724C81409105C1F568
:1006800028C080EA91E0A0E0B0E03BC08FEC90E0B1
:10069000A0E0B0E036C08AE890E0A0E0B0E031C071
:1006A00087E690E0A0E0B0E02CC084E490E0A0E019
:1006B000B0E027C083E390E0A0E0B0E022C082E297
:1006C00090E0A0E0B0E01DC089E190E0A0E0B0E0E3
:1006D00018C080E190E0A0E0B0E013C088E090E0B6
:1006E000A0E0B0E00EC087E090E0A0E0B0E009C07C
:1006F00087E690E0A0E0B0E004C080E493E0A0E0F2
:10070000B0E0492F5A2F6B2F772767FD7A954093DA
:10071000C5008093C400789408951F93CF93DF930E
:10072000182F8091C00085FD06C0C0ECD0E0FADC37
:10073000988195FFFCCF1093C600DF91CF911F9158
:1007400008950F931F93CF93DF93161617064CF45B
:100750008C01EC01060F171F8991DFDFC017D1074D
:10076000D9F7DF91CF911F910F910895F894FFCFA2
:00000001FF
