S00F0000445331384232302E7372656371
S113000071C000008FC000008DC000008BC00000D4
S113001089C0000087C0000085C0000083C00000C4
S113002081C000007FC000007DC000007BC00000D4
S113003079C0000077C0000075C0000073C00000E4
S113004071C000006FC000006DC000006BC00000F4
S113005069C0000042C2000065C0000063C0000027
S113006061C000005FC000005DC000005BC0000014
S113007059C0000057C0000055C0000053C0000024
S113008051C000004FC000004DC000004BC0000034
S113009049C0000047C0000045C0000043C0000044
S11300A041C000003FC000003DC000003BC0000054
S11300B039C0000037C0000035C0000033C0000064
S11300C031C000002FC000002DC000002BC0000074
S11300D029C0000027C0000025C0000023C0000084
S11300E021C0000011241FBECFEFD1E2DEBFCDBF7F
S11300F000E00CBF12E0A0E0B2E0EEE7F1E100E0C6
S11301000BBF02C007900D92AA32B107D9F722E0C3
S1130110AAE2B2E001C01D92AB36B207E1F741D3C7
S11301200C94BD086DCFCF93DF932F923F924F92E3
S11301305F926F927F928F929F92AF92BF92CF9273
S1130140DF92EF92FF920F931F9340912A025091F6
S11301506202642F660F660FE2E4F2E0E60F00919C
S11301605D00008300915E00018320912B02309199
S11301702D02232B30912C02232B40912A025091E3
S1130180620270E0783089F34395550F503011F4D2
S1130190539540E0652F62237395603099F701C051
S11301A0E4CF40932A0250936202642F660F660FD5
S11301B0E2E4F2E0E60F7191808170935D00809338
S11301C05E001F910F91FF90EF90DF90CF90BF9052
S11301D0AF909F908F907F906F905F904F903F90E3
S11301E02F90DF91CF910895682F692B000031F093
S11301F005D000C000000197D9F700000895CF93FF
S1130200DF93E2E4F2E08FE791E2918380839383CA
S113021082838FEF90E295838483978386838FE72D
S113022090E291878087938782878FEF9FE19587FC
S11302308487978786878FE79FE1918B808B938B49
S1130240828B8FEF9EE1958B848B978B868B8FE7C8
S11302509EE1918F808F938F828F8FEF9DE1958F99
S1130260848F978F868F8AEA8093002180938020E1
S1130270809300208093801F8093001F8093801EB2
S11302808093001E8093801D10923E0210923F02C4
S11302901092400210924102EEE2F2E011821082CA
S11302A01382128215821482178216821186108696
S11302B01386128615861486178616868EEF80930B
S11302C02B0210922C0210922D0210922A0281E02D
S11302D08093620282E084BD9AEF97BD80936E00A2
S11302E083E085BD8DB79EB781159242B0F4A0E836
S11302F0B1E280E092E2C1E0D2E2FC0122912E93CD
S1130300BE01681B790B9C01225031094DB75EB7C1
S1130310CF012417350788F702C060E070E0F89435
S113032080E891E2861B970B9EBF8DBF7894DF9186
S1130330CF9108950F931F93062F172FE82FF0E006
S1130340EE0FFF1FEE0FFF1FEE5BFD4FA081B1818B
S11303506C93A081B1811197B183A0837C93A08118
S1130360B1811197B183A083012E000C220B330BB2
S11303703C93A081B1811297B183A0839CE19C93AB
S1130380A081B1811197B183A0839DE19C93A08149
S1130390B18192E09C93A081B1811197B183A08334
S11303A093E09C93A081B1811197B183A08394E0E1
S11303B09C93A081B1811197B183A08395E09C9314
S11303C0A081B1811197B183A08396E09C93A08111
S11303D0B1811197B183A08397E09C93A081B181EF
S11303E01197B183A08398E09C93A081B181119768
S11303F0B183A08399E09C93A081B1811197B183CB
S1130400A0839AE09C93A081B1811197B183A083CA
S11304109BE09C93A081B1811197B183A0839CE060
S11304209C93A081B1811197B183A0839DE09C939B
S1130430A081B1811197B183A0839EE09C93A08198
S1130440B1811197B183A0839FE09C93A081B18176
S11304501197B183A08390E19C93A081B1811197FE
S1130460B183A08391E19C93208131812150310992
S11304703183208321E030E0082E02C0220F331F95
S11304800A94E2F7442339F0209590912B02292312
S113049020932B0205C090912B02292B20932B0231
S11304A090912A02891301C060DE1F910F91089573
S11304B09C0180912C0290916202982B90932C02C3
S11304C0F894E0912A02F0E0EE0FFF1FE25DFD4F89
S11304D031832083789427CE08951F920F920FB60C
S11304E00F9211240BB60F922F933F934F935F9368
S11304F06F938F939F93AF93BF93EF93FF93609109
S11305002C0280E090E041E050E0FC01EE0FFF1F80
S1130510E25DFD4F20813181232B59F0FC01EE0F68
S1130520FF1FE25DFD4F208131812150310931836C
S11305302083FC01EE0FFF1FE25DFD4F208131811E
S1130540232B49F49A01082E02C0220F331F0A9468
S1130550E2F720956223019688309105B1F6609305
S11305602C0280913E0290913F02A0914002B091F2
S113057041020196A11DB11D80933E0290933F025A
S1130580A0934002B0934102FF91EF91BF91AF91CC
S11305909F918F916F915F914F913F912F910F9008
S11305A00BBE0F900FBE0F901F901895CF936C9AAF
S11305B074988FED91E018DE749A6C9885E490E05D
S11305C013DECCB185EE90E00FDEC295C17081E000
S11305D08C27CF9108956C9A7498749A6C988EE0D5
S11305E090E002DE8CB1807108956C9A7498813029
S11305F009F4749A8BE390E0F7DD749A6C9808958B
S1130600EF92FF921F93CF93DF93C0E0D0E010E00E
S1130610EE24E394F12CDFDF882341F0C7010C2E94
S113062002C0880F991F0A94E2F7182B83E190E027
S1130630DBDD2196C830D10571F7812FDF91CF9191
S11306401F91FF90EF9008950F931F93CF93DF9323
S1130650C0E0D0E0082F10E0C8010C2E02C0959530
S113066087950A94E2F78170C0DF2196C830D105DE
S113067099F787E790E0B8DDDF91CF911F910F9153
S11306800895EF92FF920F931F93CF93DF93CDB70B
S1130690DEB72A970FB6F894DEBF0FBECDBF86DF54
S11306A08CECD2DF84E4D0DF87E790E09DDD7EDF51
S11306B08CECCADF8EEBC8DF8E010F5F1F4F7E010B
S11306C08AE0E80EF11C9CDFF80181938F01EE159E
S11306D0FF05C9F79A818981913840F48695992359
S11306E01CF481958695819590E003C09923E4F7E5
S11306F0F8CF2A960FB6F894DEBF0FBECDBFDF91B8
S1130700CF911F910F91FF90EF9008954FDF8111CA
S113071006C088EE93E0CCDE49DF8823D1F3B1DF55
S1130720909364028093630288EE93E0C1DEF7CF76
S113073046E050E060E07BE480E090E045D080E477
S113074090E025D1EC010BE112E0E7D0823519F0FD
S11307508335D9F31CC080916302909164029F9306
S11307608F931F930F93DF93CF933ED2FE0101909B
S11307700020E9F73197BF016C1B7D0BCE01F2D04D
S11307800F900F900F900F900F900F90DECF64E1B9
S113079070E086E092E0E6D0C6E0D2E0D6CFC3CCEB
S11307A008952DDD41E066E873E080E0C3DD41E0BB
S11307B068E973E081E0BEDD41E06FEC73E082E064
S11307C0B9DD80E090E00895F8944093C20028E1F8
S11307D02093C100E0ECF0E02081226020836038A7
S11307E020E772078105910509F45FC00CF56038B4
S11307F025E272078105910509F448C06CF460365E
S113080029E072078105910509F477C0603C7241C3
S113081081059105B1F16CC0603428E3720781054C
S11308209105C9F161157B4481059105C9F160C049
S113083061152CE2720721E08207910509F444C096
S113084064F4611526E972078105910599F1611532
S1130850714E8105910599F14BC0611524E8720729
S113086023E082079105D1F1603920ED720723E07E
S113087082079105C1F16115724C81409105C1F562
S113088028C080EA91E0A0E0B0E03BC08FEC90E0AB
S1130890A0E0B0E036C08AE890E0A0E0B0E031C06B
S11308A087E690E0A0E0B0E02CC084E490E0A0E013
S11308B0B0E027C083E390E0A0E0B0E022C082E291
S11308C090E0A0E0B0E01DC089E190E0A0E0B0E0DD
S11308D018C080E190E0A0E0B0E013C088E090E0B0
S11308E0A0E0B0E00EC087E090E0A0E0B0E009C076
S11308F087E690E0A0E0B0E004C080E493E0A0E0EC
S1130900B0E0492F5A2F6B2F772767FD7A954093D4
S1130910C5008093C40078940895CF93DF938091A9
S1130920C000882334F0C0ECD0E0FDDB888188234C
S1130930E4F78091C600DF91CF9108951F93CF9380
S1130940DF93182F8091C00085FD06C0C0ECD0E075
S1130950EADB988195FFFCCF1093C600DF91CF911D
S11309601F9108950F931F93CF93DF9316161706C5
S11309704CF48C01EC01060F171F8991DFDFC017BF
S1130980D107D9F7DF91CF911F910F910895CF939C
S1130990DF938230910510F482E090E0E0916902E7
S11309A0F0916A0220E030E0C0E0D0E0309711F12D
S11309B04081518148175907C0F04817590761F41D
S11309C082819381209719F09B838A832BC0909313
S11309D06A028093690226C02115310519F0421775
S11309E0530718F49A01BE01DF01EF010280F3817D
S11309F0E02DDCCF2115310509F1281B390B2430FA
S1130A00310590F412968D919C911397611571059F
S1130A1021F0FB019383828304C090936A02809344
S1130A206902FD01329644C0FD01E20FF31F819378
S1130A309193225031092D933C933AC0209167023F
S1130A4030916802232B41F4209102023091030279
S1130A5030936802209367022091000230910102D2
S1130A602115310541F42DB73EB740910402509150
S1130A700502241B350BE0916702F0916802E2172E
S1130A80F307A0F42E1B3F0B2817390778F0AC01AD
S1130A904E5F5F4F2417350748F04E0F5F1F50938A
S1130AA06802409367028193919302C0E0E0F0E012
S1130AB0CF01DF91CF9108950F931F93CF93DF93CD
S1130AC0009709F48CC0FC013297138212820091C2
S1130AD0690210916A020115110581F420813181A6
S1130AE0820F931F209167023091680228173907FB
S1130AF079F5F0936802E093670271C0D80140E091
S1130B0050E0AE17BF0750F412962D913C91139705
S1130B10AD012115310509F1D901F3CF9D01DA01A8
S1130B203383228360817181860F971F8217930715
S1130B3069F4EC0128813981260F371F2E5F3F4F5E
S1130B40318320838A819B8193838283452B29F47B
S1130B50F0936A02E093690242C01396FC93EE9309
S1130B601297ED01499159919E01240F351FE21707
S1130B70F30771F480819181840F951F0296119679
S1130B809C938E938281938113969C938E93129758
S1130B90E0E0F0E0D80112968D919C9113970097B4
S1130BA019F0F8018C01F6CF8D919C9198012E5F7C
S1130BB03F4F820F931F20916702309168022817DC
S1130BC0390769F4309729F410926A021092690285
S1130BD002C0138212821093680200936702DF91AD
S1130BE0CF911F910F9108950F931F93CF93DF938C
S1130BF0CDB7DEB72E970FB6F894DEBF0FBECDBFCC
S1130C000E891F8986E08C831A8309838FEF9FE7FF
S1130C109E838D83AE01465E5F4F688D798DCE01D4
S1130C20019611D02F813885F801E20FF31F10824D
S1130C302E960FB6F894DEBF0FBECDBFDF91CF91D5
S1130C401F910F9108952F923F924F925F926F924E
S1130C507F928F929F92AF92BF92CF92DF92EF9248
S1130C60FF920F931F93CF93DF93CDB7DEB72C97EB
S1130C700FB6F894DEBF0FBECDBF7C016B018A01B5
S1130C80FC0117821682838181FFB0C1CE010196D7
S1130C904C01F7019381F60193FD859193FF8191B6
S1130CA06F01882309F49EC1853239F493FD85913F
S1130CB093FF81916F01853221F4B70190E0C7D190
S1130CC0E8CF512C312C20E02032A0F48B3269F093
S1130CD030F4803259F0833269F420612CC08D32B3
S1130CE039F0803339F4216026C02260246023C0A7
S1130CF0286021C027FD27C030ED380F3A3078F442
S1130D0026FF06C0FAE05F9E300D1124532E13C057
S1130D108AE0389E300D1124332E20620CC08E32AE
S1130D2021F426FD5FC1206406C08C3611F42068CE
S1130D3002C0883641F4F60193FD859193FF8191B9
S1130D406F018111C1CF982F9F7D9554933028F462
S1130D500C5F1F4FFFE3F9830DC0833631F08337F7
S1130D6071F0833509F057C021C0F801808189836F
S1130D700E5F1F4F44244394512C540114C0380176
S1130D80F2E06F0E711CF801A080B18026FF03C051
S1130D90652D70E002C06FEF7FEFC5012C874CD149
S1130DA02C0183012C852F77222E16C03801F2E006
S1130DB06F0E711CF801A080B18026FF03C0652D61
S1130DC070E002C06FEF7FEFC5012C872AD12C01A0
S1130DD02C852068222E830123FC19C0832D90E0EA
S1130DE048165906A0F4B70180E290E030D13A9455
S1130DF0F5CFF50127FC859127FE81915F01B701AD
S1130E0090E025D131103A94F1E04F1A5108411481
S1130E10510479F7DEC0843611F0893631F5F801D2
S1130E2027FF07C060817181828193810C5F1F4F0E
S1130E3008C060817181072E000C880B990B0E5F2E
S1130E401F4F2F76722E97FF09C09095809570954D
S1130E5061957F4F8F4F9F4F2068722E2AE030E0BC
S1130E60A4012DD1A82EA81843C0853729F42F7EBC
S1130E70B22E2AE030E025C0F22FF97FBF2E8F3644
S1130E80C1F018F4883579F0ADC0803719F088378F
S1130E9021F0A8C02F2F2061B22EB4FE0DC08B2DDF
S1130EA08460B82E09C024FF0AC09F2F9660B92E13
S1130EB006C028E030E005C020E130E002C020E1B7
S1130EC032E0F801B7FE07C06081718182819381AD
S1130ED00C5F1F4F06C06081718180E090E00E5F5F
S1130EE01F4FA401ECD0A82EA818FB2DFF777F2E4E
S1130EF076FE0BC0372D3E7FA51450F474FE0AC055
S1130F0072FC08C0372D3E7E05C0BA2C372D03C0B5
S1130F10BA2C01C0B52C34FF0DC0FE01EA0DF11D41
S1130F208081803311F4397E09C032FF06C0B39446
S1130F30B39404C0832F867809F0B39433FD12C0B0
S1130F4030FF06C05A2CB31418F4530C5B18B32C9E
S1130F50B31460F4B70180E290E03C8778D0B39496
S1130F603C85F6CFB31410F43B1801C0312C34FF88
S1130F7011C0B70180E390E03C8769D03C8532FF23
S1130F8016C031FD03C088E790E002C088E590E018
S1130F90B7010CC0832F867851F031FF02C08BE279
S1130FA001C080E237FD8DE2B70190E050D0A51476
S1130FB030F4B70180E390E04AD05A94F8CFAA9471
S1130FC0F401EA0DF11D8081B70190E040D0A11039
S1130FD0F6CF332009F45DCEB70180E290E037D03C
S1130FE03A94F7CFF7018681978102C08FEF9FEF84
S1130FF02C960FB6F894DEBF0FBECDBFDF91CF9114
S11310001F910F91FF90EF90DF90CF90BF90AF9022
S11310109F908F907F906F905F904F903F902F9014
S11310200895FC010590615070400110D8F7809537
S113103090958E0F9F1F0895FC01615070400190A0
S11310400110D8F7809590958E0F9F1F08950F93E8
S11310501F93CF93DF93FB01238121FD03C08FEF07
S11310609FEF28C022FF16C0468157812481358115
S11310704217530744F4A081B1819D012F5F3F4F74
S1131080318320838C93268137812F5F3F4F3783B1
S1131090268310C0EB01092F182F0084F185E02D61
S11310A01995892BE1F68E819F8101969F838E830A
S11310B0812F902FDF91CF911F910F910895FA0105
S11310C0AA27283051F1203181F1E8946F936E7F83
S11310D06E5F7F4F8F4F9F4FAF4FB1E03ED0B4E074
S11310E03CD0670F781F891F9A1FA11D680F791FB5
S11310F08A1F911DA11D6A0F711D811D911DA11DC6
S113110020D009F468943F912AE0269F11243019D5
S1131110305D3193DEF6CF010895462F4770405D70
S11311204193B3E00FD0C9F7F6CF462F4F70405D1F
S11311304A3318F0495D31FD4052419302D0A9F77A
S1131140EACFB4E0A6959795879577956795BA9574
S1131150C9F700976105710508959B01AC010A2E3A
S113116006945795479537952795BA95C9F7620F11
S1111170731F841F951FA01D0895F894FFCFD0
S113117E00006B022000556E7265636F676E697AAC
S113118E656420436F6D6D616E6400256420646533
S10D119E677265657320430A0D00B3
S9030000FC
