:1000000071C0000081C000007FC000007DC0000002
:100010007BC0000079C0000077C0000075C0000000
:1000200073C0000071C000006FC000006DC0000010
:100030006BC0000069C0000067C0000065C0000020
:1000400063C0000061C000005FC000005DC0000030
:100050005BC0000034C2000057C0000055C0000063
:1000600053C0000051C000004FC000004DC0000050
:100070004BC0000049C0000047C0000045C0000060
:1000800043C0000041C000003FC000003DC0000070
:100090003BC0000039C0000037C0000035C0000080
:1000A00033C0000031C000002FC000002DC0000090
:1000B0002BC0000029C0000027C0000025C00000A0
:1000C00023C0000021C000001FC000001DC00000B0
:1000D0001BC0000019C0000017C0000015C00000C0
:1000E00013C0000011241FBECFEFD1E2DEBFCDBF91
:1000F00000E00CBF22E0A0E0B2E001C01D92A933F5
:10010000B207E1F77CD22DC37BCFCF93DF932F9241
:100110003F924F925F926F927F928F929F92AF9297
:10012000BF92CF92DF92EF92FF920F931F93409175
:10013000000250913802642F660F660FE8E1F2E08A
:10014000E60F00915D00008300915E000183209125
:10015000010230910302232B30910202232B4091A4
:1001600000025091380270E0783089F34395550FC2
:10017000503011F4539540E0652F62237395603041
:1001800099F701C0E4CF4093000250933802642FE6
:10019000660F660FE8E1F2E0E60F719180817093DF
:1001A0005D0080935E001F910F91FF90EF90DF90B4
:1001B000CF90BF90AF909F908F907F906F905F9007
:1001C0004F903F902F90DF91CF910895682F692B2A
:1001D000000031F005D000C000000197D9F7000001
:1001E0000895CF93DF93E8E1F2E08FE791E2918306
:1001F0008083938382838FEF90E2958384839783B8
:1002000086838FE790E291878087938782878FEF3D
:100210009FE195878487978786878FE79FE1918BFA
:10022000808B938B828B8FEF9EE1958B848B978B4A
:10023000868B8FE79EE1918F808F938F828F8FEFD8
:100240009DE1958F848F978F868F8AEA8093002116
:1002500080938020809300208093801F8093001FD4
:100260008093801E8093001E8093801D1092140244
:10027000109215021092160210921702E4E0F2E0BA
:1002800011821082138212821582148217821682C2
:100290001186108613861286158614861786168692
:1002A0008EEF8093010210920202109203021092CC
:1002B000000281E08093380282E084BD9AEF97BD0E
:1002C00080936E0083E085BD8DB79EB78115924205
:1002D000B0F4A0E8B1E280E092E2C1E0D2E2FC0139
:1002E00022912E93BE01681B790B9C01225031098B
:1002F0004DB75EB7CF012417350788F702C060E01D
:1003000070E0F89480E891E2861B970B9EBF8DBF4A
:100310007894DF91CF9108950F931F93062F172F95
:10032000E82FF0E0EE0FFF1FEE0FFF1FE85EFD4F1E
:10033000A081B1816C93A081B1811197B183A08319
:100340007C93A081B1811197B183A083012E000C11
:10035000220B330B3C93A081B1811297B183A08310
:100360009CE19C93A081B1811197B183A0839DE111
:100370009C93A081B18192E09C93A081B18111975F
:10038000B183A08393E09C93A081B1811197B18345
:10039000A08394E09C93A081B1811197B183A08345
:1003A00095E09C93A081B1811197B183A08396E0E1
:1003B0009C93A081B1811197B183A08397E09C9316
:1003C000A081B1811197B183A08398E09C93A08113
:1003D000B1811197B183A08399E09C93A081B181F1
:1003E0001197B183A0839AE09C93A081B18111976A
:1003F000B183A0839BE09C93A081B1811197B183CD
:10040000A0839CE09C93A081B1811197B183A083CC
:100410009DE09C93A081B1811197B183A0839EE060
:100420009C93A081B1811197B183A0839FE09C939D
:10043000A081B1811197B183A08390E19C93A081A9
:10044000B1811197B183A08391E19C932081318187
:10045000215031093183208321E030E0082E02C091
:10046000220F331F0A94E2F7442339F0209590912C
:10047000010229232093010205C090910102292B3A
:100480002093010290910002891301C060DE1F9148
:100490000F9108959C018091020290913802982B4F
:1004A00090930202F894E0910002F0E0EE0FFF1F3B
:1004B000EC5FFD4F31832083789427CE08951F92FF
:1004C0000F920FB60F9211240BB60F922F933F93FA
:1004D0004F935F936F938F939F93AF93BF93EF93DC
:1004E000FF936091020280E090E041E050E0FC0167
:1004F000EE0FFF1FEC5FFD4F20813181232B59F060
:10050000FC01EE0FFF1FEC5FFD4F20813181215078
:10051000310931832083FC01EE0FFF1FEC5FFD4F9B
:1005200020813181232B49F49A01082E02C0220F29
:10053000331F0A94E2F720956223019688309105D3
:10054000B1F6609302028091140290911502A0917D
:100550001602B09117020196A11DB11D80931402DD
:1005600090931502A0931602B0931702FF91EF919A
:10057000BF91AF919F918F916F915F914F913F91FB
:100580002F910F900BBE0F900FBE0F901F901895DC
:10059000CF936C9A74988FED91E018DE749A6C98F2
:1005A00085E490E013DECCB185EE90E00FDEC295DD
:1005B000C17081E08C27CF9108956C9A7498813036
:1005C00009F4749A87E690E001DE749A6C980895B5
:1005D000DFDF46E050E060E07BE480E090E018D0B0
:1005E000D7DF811106C088EE93E054DFD1DF882386
:1005F000D1F380E0E2DF88EE93E04CDFFACFF1DD6B
:1006000041E068EE72E080E087DE80E090E00895EF
:10061000F8944093C20028E12093C100E0ECF0E0A0
:10062000208122602083603820E7720781059105D0
:1006300009F45FC00CF5603825E272078105910569
:1006400009F448C06CF4603629E072078105910511
:1006500009F477C0603C724181059105B1F16CC02D
:10066000603428E3720781059105C9F161157B4467
:1006700081059105C9F160C061152CE2720721E086
:100680008207910509F444C064F4611526E97207F4
:100690008105910599F16115714E8105910599F1D9
:1006A0004BC0611524E8720723E082079105D1F160
:1006B000603920ED720723E082079105C1F16115D1
:1006C000724C81409105C1F528C080EA91E0A0E01C
:1006D000B0E03BC08FEC90E0A0E0B0E036C08AE82C
:1006E00090E0A0E0B0E031C087E690E0A0E0B0E0AC
:1006F0002CC084E490E0A0E0B0E027C083E390E069
:10070000A0E0B0E022C082E290E0A0E0B0E01DC036
:1007100089E190E0A0E0B0E018C080E190E0A0E0C6
:10072000B0E013C088E090E0A0E0B0E00EC087E049
:1007300090E0A0E0B0E009C087E690E0A0E0B0E083
:1007400004C080E493E0A0E0B0E0492F5A2F6B2F63
:10075000772767FD7A954093C5008093C40078940D
:060760000895F894FFCF9C
:00000001FF
