S00F0000445331384232302E7372656371
S113000071C000008EC000008CC000008AC00000D7
S113001088C0000086C0000084C0000082C00000C8
S113002080C000007EC000007CC000007AC00000D8
S113003078C0000076C0000074C0000072C00000E8
S113004070C000006EC000006CC000006AC00000F8
S113005068C0000078C1000064C0000062C00000F5
S113006060C000005EC000005CC000005AC0000018
S113007058C0000056C0000054C0000052C0000028
S113008050C000004EC000004CC000004AC0000038
S113009048C0000046C0000044C0000042C0000048
S11300A040C000003EC000003CC000003AC0000058
S11300B038C0000036C0000034C0000032C0000068
S11300C030C000002EC000002CC000002AC0000078
S11300D028C0000026C0000024C0000022C0000088
S11300E020C0000011241FBECFEFD1E2DEBFCDBF80
S11300F000E00CBF12E0A0E0B2E0E4E8FEE000E0C3
S11301000BBF02C007900D92A833B107D9F722E0C4
S1130110A8E3B2E001C01D92A537B207E1F7B2D15E
S1130120AFC66ECFCF93DF932F923F924F925F92E1
S11301306F927F928F929F92AF92BF92CF92DF92F3
S1130140EF92FF920F931F934091380250917002E7
S1130150642F660F660FE0E5F2E0E60F00915D00A4
S1130160008300915E0001832091390230913B02AB
S1130170232B30913A02232B409138025091700284
S113018070E0783089F34395550F503011F453954E
S113019040E0652F62237395603099F701C0E4CF86
S11301A04093380250937002642F660F660FE0E5A7
S11301B0F2E0E60F7191808170935D0080935E00A0
S11301C01F910F91FF90EF90DF90CF90BF90AF9071
S11301D09F908F907F906F905F904F903F902F9063
S11301E0DF91CF910895CF93DF93E0E5F2E08FE7BD
S11301F091E291838083938382838FEF90E295834E
S11302008483978386838FE790E29187808793879F
S113021082878FEF9FE195878487978786878FE70B
S11302209FE1918B808B938B828B8FEF9EE1958BDB
S1130230848B978B868B8FE79EE1918F808F938F32
S1130240828F8FEF9DE1958F848F978F868F8AEAB7
S11302508093002180938020809300208093801FCE
S11302608093001F8093801E8093001E8093801DC6
S113027010924C0210924D0210924E0210924F02B4
S1130280ECE3F2E01182108213821282158214824E
S11302901782168211861086138612861586148696
S11302A0178616868EEF8093390210923A021092C6
S11302B03B021092380281E08093700282E084BD98
S11302C09AEF97BD80936E0083E085BD8DB79EB78E
S11302D081159242B0F4A0E8B1E280E092E2C1E07C
S11302E0D2E2FC0122912E93BE01681B790B9C0182
S11302F0225031094DB75EB7CF012417350788F76F
S113030002C060E070E0F89480E891E2861B970BED
S11303109EBF8DBF7894DF91CF9108959C01809109
S11303203A0290917002982B90933A02F894E091DB
S11303303802F0E0EE0FFF1FE45CFD4F31832083B1
S11303407894F0CE08951F920F920FB60F92112455
S11303500BB60F922F933F934F935F936F938F93AB
S11303609F93AF93BF93EF93FF9360913A0280E022
S113037090E041E050E0FC01EE0FFF1FE45CFD4F14
S113038020813181232B59F0FC01EE0FFF1FE45C27
S1130390FD4F208131812150310931832083FC01BB
S11303A0EE0FFF1FE45CFD4F20813181232B49F4C4
S11303B09A01082E02C0220F331F0A94E2F72095F7
S11303C06223019688309105B1F660933A028091D8
S11303D04C0290914D02A0914E02B0914F020196B1
S11303E0A11DB11D80934C0290934D02A0934E0227
S11303F0B0934F02FF91EF91BF91AF919F918F9175
S11304006F915F914F913F912F910F900BBE0F9081
S11304100FBE0F901F9018956A3071F5442379F13F
S1130420ECE7F0E09081282F2F70922B9083EBE77C
S1130430F0E02081982F9071892F90E09595879511
S1130440822B8083EAE7F0E080818068808380816A
S113045080648083808186FDFDCF20917800809127
S11304607900EAE7F0E090819058908390E0982F2B
S11304708827820F911D08958FEF9FEF08958FEFC6
S11304809FEF0895B0DE46E050E060E07BE480E05A
S113049090E02ED080E490E0FDD0D82FC92F02E365
S11304A012E067E070E08AE292E0DFD041E06AE0C7
S11304B080E0B2DF9F938F931F930F93CF93DF93CB
S11304C016D2AD2FBC2FFD0101900020E9F7319722
S11304D0BF016A1B7B0B8D2F9C2FC7D088EE93E046
S11304E01DDF0F900F900F900F900F900F90D9CFAA
S11304F0F8944093C20028E12093C100E0ECF0E0BE
S1130500208122602083603820E7720781059105ED
S113051009F45FC00CF5603825E272078105910586
S113052009F448C06CF4603629E07207810591052E
S113053009F477C0603C724181059105B1F16CC04A
S1130540603428E3720781059105C9F161157B4484
S113055081059105C9F160C061152CE2720721E0A3
S11305608207910509F444C064F4611526E9720711
S11305708105910599F16115714E8105910599F1F6
S11305804BC0611524E8720723E082079105D1F17D
S1130590603920ED720723E082079105C1F16115EE
S11305A0724C81409105C1F528C080EA91E0A0E039
S11305B0B0E03BC08FEC90E0A0E0B0E036C08AE849
S11305C090E0A0E0B0E031C087E690E0A0E0B0E0C9
S11305D02CC084E490E0A0E0B0E027C083E390E086
S11305E0A0E0B0E022C082E290E0A0E0B0E01DC054
S11305F089E190E0A0E0B0E018C080E190E0A0E0E4
S1130600B0E013C088E090E0A0E0B0E00EC087E066
S113061090E0A0E0B0E009C087E690E0A0E0B0E0A0
S113062004C080E493E0A0E0B0E0492F5A2F6B2F80
S1130630772767FD7A954093C5008093C40078942A
S113064008951F93CF93DF93182F8091C00085FDE9
S113065006C0C0ECD0E066DD988195FFFCCF109316
S1130660C600DF91CF911F9108950F931F93CF93ED
S1130670DF93161617064CF48C01EC01060F171FB6
S11306808991DFDFC017D107D9F7DF91CF911F918F
S11306900F910895CF93DF938230910510F482E097
S11306A090E0E0917302F091740220E030E0C0E049
S11306B0D0E0309711F14081518148175907C0F0BB
S11306C04817590761F482819381209719F09B831D
S11306D08A832BC0909374028093730226C02115E1
S11306E0310519F04217530718F49A01BE01DF01CE
S11306F0EF010280F381E02DDCCF2115310509F1F2
S1130700281B390B2430310590F412968D919C915D
S113071013976115710521F0FB019383828304C053
S11307209093740280937302FD01329644C0FD01DC
S1130730E20FF31F81939193225031092D933C933F
S11307403AC02091710230917202232B41F420911E
S113075002023091030230937202209371022091BD
S11307600002309101022115310541F42DB73EB745
S11307704091040250910502241B350BE091710253
S1130780F0917202E217F307A0F42E1B3F0B281717
S1130790390778F0AC014E5F5F4F2417350748F0F6
S11307A04E0F5F1F50937202409371028193919395
S11307B002C0E0E0F0E0CF01DF91CF9108950F9304
S11307C01F93CF93DF93009709F48CC0FC013297F9
S11307D013821282009173021091740201151105A3
S11307E081F420813181820F931F20917102309115
S11307F072022817390779F5F0937202E0937102B7
S113080071C0D80140E050E0AE17BF0750F4129613
S11308102D913C911397AD012115310509F1D901B1
S1130820F3CF9D01DA013383228360817181860FC6
S1130830971F8217930769F4EC0128813981260FE9
S1130840371F2E5F3F4F318320838A819B8193839F
S11308508283452B29F4F0937402E093730242C01F
S11308601396FC93EE931297ED01499159919E01D1
S1130870240F351FE217F30771F480819181840FEF
S1130880951F029611969C938E9382819381139661
S11308909C938E931297E0E0F0E0D80112968D912C
S11308A09C911397009719F0F8018C01F6CF8D9164
S11308B09C9198012E5F3F4F820F931F20917102EC
S11308C0309172022817390769F4309729F410928D
S11308D074021092730202C0138212821093720285
S11308E000937102DF91CF911F910F9108950F939F
S11308F01F93CF93DF93CDB7DEB72E970FB6F8943F
S1130900DEBF0FBECDBF0E891F8986E08C831A839C
S113091009838FEF9FE79E838D83AE01465E5F4F11
S1130920688D798DCE01019611D02F813885F8011B
S1130930E20FF31F10822E960FB6F894DEBF0FBE9F
S1130940CDBFDF91CF911F910F9108952F923F92C8
S11309504F925F926F927F928F929F92AF92BF92CB
S1130960CF92DF92EF92FF920F931F93CF93DF9377
S1130970CDB7DEB72C970FB6F894DEBF0FBECDBF50
S11309807C016B018A01FC0117821682838181FF3D
S1130990B0C1CE0101964C01F7019381F60193FD9C
S11309A0859193FF81916F01882309F49EC185325B
S11309B039F493FD859193FF81916F01853221F480
S11309C0B70190E0C7D1E8CF512C312C20E0203280
S11309D0A0F48B3269F030F4803259F0833269F438
S11309E020612CC08D3239F0803339F4216026C067
S11309F02260246023C0286021C027FD27C030ED79
S1130A00380F3A3078F426FF06C0FAE05F9E300DC6
S1130A101124532E13C08AE0389E300D1124332E36
S1130A2020620CC08E3221F426FD5FC1206406C012
S1130A308C3611F4206802C0883641F4F60193FD27
S1130A40859193FF81916F018111C1CF982F9F7D73
S1130A509554933028F40C5F1F4FFFE3F9830DC0C6
S1130A60833631F0833771F0833509F057C021C0E4
S1130A70F801808189830E5F1F4F44244394512CD5
S1130A80540114C03801F2E06F0E711CF801A0800B
S1130A90B18026FF03C0652D70E002C06FEF7FEFC9
S1130AA0C5012C874CD12C0183012C852F77222E54
S1130AB016C03801F2E06F0E711CF801A080B180FD
S1130AC026FF03C0652D70E002C06FEF7FEFC50104
S1130AD02C872AD12C012C852068222E830123FC0B
S1130AE019C0832D90E048165906A0F4B70180E29E
S1130AF090E030D13A94F5CFF50127FC859127FE9B
S1130B0081915F01B70190E025D131103A94F1E071
S1130B104F1A51084114510479F7DEC0843611F09C
S1130B20893631F5F80127FF07C060817181828120
S1130B3093810C5F1F4F08C060817181072E000CE8
S1130B40880B990B0E5F1F4F2F76722E97FF09C0EB
S1130B5090958095709561957F4F8F4F9F4F20683A
S1130B60722E2AE030E0A4012DD1A82EA81843C08B
S1130B70853729F42F7EB22E2AE030E025C0F22FEB
S1130B80F97FBF2E8F36C1F018F4883579F0ADC0E7
S1130B90803719F0883721F0A8C02F2F2061B22E9A
S1130BA0B4FE0DC08B2D8460B82E09C024FF0AC08A
S1130BB09F2F9660B92E06C028E030E005C020E1E2
S1130BC030E002C020E132E0F801B7FE07C06081E6
S1130BD07181828193810C5F1F4F06C06081718196
S1130BE080E090E00E5F1F4FA401ECD0A82EA8185F
S1130BF0FB2DFF777F2E76FE0BC0372D3E7FA5148D
S1130C0050F474FE0AC072FC08C0372D3E7E05C045
S1130C10BA2C372D03C0BA2C01C0B52C34FF0DC03B
S1130C20FE01EA0DF11D8081803311F4397E09C083
S1130C3032FF06C0B394B39404C0832F867809F0BE
S1130C40B39433FD12C030FF06C05A2CB31418F409
S1130C50530C5B18B32CB31460F4B70180E290E03A
S1130C603C8778D0B3943C85F6CFB31410F43B188A
S1130C7001C0312C34FF11C0B70180E390E03C8700
S1130C8069D03C8532FF16C031FD03C088E790E08F
S1130C9002C088E590E0B7010CC0832F867851F03C
S1130CA031FF02C08BE201C080E237FD8DE2B70163
S1130CB090E050D0A51430F4B70180E390E04AD01E
S1130CC05A94F8CFAA94F401EA0DF11D8081B7017A
S1130CD090E040D0A110F6CF332009F45DCEB701E7
S1130CE080E290E037D03A94F7CFF701868197817C
S1130CF002C08FEF9FEF2C960FB6F894DEBF0FBEA5
S1130D00CDBFDF91CF911F910F91FF90EF90DF90B6
S1130D10CF90BF90AF909F908F907F906F905F9097
S1130D204F903F902F900895FC01059061507040C2
S1130D300110D8F7809590958E0F9F1F0895FC01A0
S1130D406150704001900110D8F7809590958E0FF6
S1130D509F1F08950F931F93CF93DF93FB0123816C
S1130D6021FD03C08FEF9FEF28C022FF16C04681EC
S1130D705781248135814217530744F4A081B181FE
S1130D809D012F5F3F4F318320838C9326813781D0
S1130D902F5F3F4F3783268310C0EB01092F182F95
S1130DA00084F185E02D1995892BE1F68E819F81D0
S1130DB001969F838E83812F902FDF91CF911F9176
S1130DC00F910895FA01AA27283051F1203181F1B9
S1130DD0E8946F936E7F6E5F7F4F8F4F9F4FAF4F3F
S1130DE0B1E03ED0B4E03CD0670F781F891F9A1F52
S1130DF0A11D680F791F8A1F911DA11D6A0F711D06
S1130E00811D911DA11D20D009F468943F912AE011
S1130E10269F11243019305D3193DEF6CF010895F9
S1130E20462F4770405D4193B3E00FD0C9F7F6CF2A
S1130E30462F4F70405D4A3318F0495D31FD4052F2
S1130E40419302D0A9F7EACFB4E0A6959795879588
S1130E5077956795BA95C9F7009761057105089567
S1130E609B01AC010A2E0694579547953795279513
S1130E70BA95C9F7620F731F841F951FA01D0895AB
S1070E80F894FFCF10
S1130E84000075022000556E7265636F676E697A9F
S1130E94656420436F6D6D616E6400256420646530
S1130EA4677265657320430A0D0068656C6C6F0A8C
S10B0EB40D0025780A0D000071
S9030000FC
